:100000000C94E2000C940A010C940A010C940A016D
:100010000C940A010C940A010C940A010C940A0134
:100020000C940A010C940A010C940A010C940A0124
:100030000C940A010C940A010C940A010C940A0114
:100040000C94E7090C940A010C940A010C940A011F
:100050000C940A010C940A010C940A010C940A01F4
:100060000C940A010C940A01005EBCE2613FDD833E
:10007000C29C7E20A3FD1F419DC3217FFCA2401E88
:100080005F01E3BD3E6082DC237D9FC1421CFEA078
:10009000E1BF5D0380DE3C62BEE0025CDF81633D68
:1000A0007C22C09E1D43A1FF4618FAA427799BC558
:1000B00084DA3866E5BB5907DB856739BAE4065848
:1000C0001947A5FB7826C49A653BD987045AB8E638
:1000D000A7F91B45C6987A24F8A6441A99C7257B28
:1000E0003A6486D85B05E7B98CD2306EEDB3510F18
:1000F0004E10F2AC2F7193CD114FADF3702ECC9208
:10010000D38D6F31B2EC0E50AFF1134DCE90722CF7
:100110006D33D18F0C52B0EE326C8ED0530DEFB1E7
:10012000F0AE4C1291CF2D73CA947628ABF51749D7
:100130000856B4EA6937D58B5709EBB536688AD4C7
:1001400095CB2977F4AA4816E9B7550B88D6346AB7
:100150002B7597C94A14F6A8742AC896154BA9F7A7
:10016000B6E80A54D7896B35000000002400270048
:100170002A0000000000250028002B0000000000DD
:1001800023002600290004040404040404040202D9
:100190000202020203030303030301020408102006
:1001A0004080010204081020010204081020000011
:1001B0000007000201000003040600000000000028
:1001C00000000C0111241FBECFEFD8E0DEBFCDBF71
:1001D00011E0A0E0B1E0ECE5F1E202C005900D9283
:1001E000A838B107D9F711E0A8E8B1E001C01D9225
:1001F000A43DB107E1F711E0C4ECD1E004C02297BF
:10020000FE010E94A810C23CD107C9F70E94D50B7D
:100210000C94AC100C940000CF92EF920F9388E8EE
:1002200091E06CE04BE025E004E053E0E52E32E0A5
:10023000C32E0E94930783EA91E0609144010E94DB
:10024000B1090F91EF90CF900895EF92FF920F9325
:100250001F93DF93CF93CDB7DEB764970FB6F894B3
:10026000DEBF0FBECDBF83EA91E08E010F5F1F4F4F
:10027000B8010E941B09882329F483EA91E00E94B7
:10028000CC070CC0C80167E00E94D9079885891780
:1002900029F48981803139F0883229F0E0E070E07A
:1002A0008AE764EC4BC083EA91E00E94D00883EABD
:1002B00091E08E010F5F1F4FB8010E94AF0883EAE3
:1002C00091E064E441E00E946F0883EA91E00E94BB
:1002D000D00883EA91E0B8010E94AF0883EA91E078
:1002E0006EEB40E00E946F088E01075F1F4F62E1D6
:1002F000E62EF12CEC0EFD1E83EA91E00E941E0812
:10030000F80181938F01EE15FF05B1F783EA91E0C3
:100310000E94CC077A8560E0298530E0622B732B40
:10032000882777FD8095982F0E942F0F20E030E0DE
:1003300040E85DE30E94E30FE62F692F2E2F372F51
:10034000482F562FB901CA0164960FB6F894DEBF44
:100350000FBECDBFCF91DF911F910F91FF90EF9016
:1003600008952F923F924F925F926F927F928F9259
:100370009F92AF92BF92CF92DF92EF92FF920F9334
:100380001F93CF93DF930E94250180E10E94CD0A45
:100390009093A00180939F018FE00E94CD0A9093DB
:1003A000A2018093A10182E10E94CD0A3C0100D00C
:1003B00000D060919F017091A001882777FD809502
:1003C000982FAFE12A2E312C412C512CADB7BEB75E
:1003D00011962D923D924D925C92149720E030E060
:1003E00040E050E0FFEFEF2EF3E0FF2E012D112D46
:1003F000E3E1AE2EB12CC12CD12C0E94E20D709302
:10040000A00160939F016091A1017091A2018827D2
:1004100077FD8095982FCDB7DEB729823A824B823F
:100420005C8220E030E040E050E00E94E20D7093FA
:10043000A2016093A1010DB71EB70F5F1F4F882463
:1004400077FC8094982CC401B3010E942F0F0E9466
:10045000FC0E2CE830E040E050E0F80120833183CE
:100460004283538320E030E040E050E01FEFE12E74
:1004700013E0F12E012D112DBAE0AB2EB12CC12CC1
:10048000D12C0E94E20D0E942F0F20E030E040E2CC
:1004900051E40E94940E3B014C0105EB11E0E80190
:1004A0000F900F900F900F9081E10E94CD0A8993D9
:1004B00099936AE070E080E090E00E942F0AF1E0FA
:1004C000C93CDF0789F72091C9013091CA0180E05A
:1004D00090E0BC016F5F7F4FFB01EE0FFF1FEB54FD
:1004E000FE4FAB01B22FA32FE80128813981808113
:1004F00091818217930724F08B2F9A2F9C0105C0BE
:10050000D8018D939C93318320834F5F5F4F329648
:100510004A3051053CF30E5F1F4FCB016930710526
:10052000C1F63093CA012093C9016091B90170915D
:10053000BA01882777FD8095982F2091BB013091D3
:10054000BC01442737FD4095542F620F731F841F51
:10055000951F2091BD013091BE01442737FD409584
:10056000542F620F731F841F951F2091BF0130917C
:10057000C001442737FD4095542F620F731F841F1D
:10058000951F2091C1013091C201442737FD40954C
:10059000542F620F731F841F951F2091C301309148
:1005A000C401442737FD4095542F620F731F841FE9
:1005B000951F6093B1017093B2018093B301909342
:1005C000B4010E942D0F20E030E040EA50E40E9488
:1005D000E30F20E030E040E85AE30E94E30F20E020
:1005E00030E040EC50E40E94940E20E030E040E621
:1005F00050E40E94E30F2DEC3CEC4CE45EE30E94DF
:100600002C0E5B016C0187E00E94820B019749F57B
:1006100088E061E00E942E0B88E891E060E041E014
:100620000E94A60688E891E060E071E00E94F80C64
:1006300064EF71E080E090E00E942F0A88E891E08A
:1006400060E041E00E94A60688E891E061E171E087
:100650000E94F80C64EF71E080E090E00E942F0AA5
:10066000D2C088E060E00E942E0B88E891E060E054
:1006700040E00E94A60688E891E063E00E940E0C2C
:1006800088E891E061E040E00E94A6060E94250112
:10069000AB01BC0188E891E021E030E00E94DF0D71
:1006A00088E891E065E040E00E94A60688E891E0D5
:1006B00064E00E940E0C88E891E066E040E00E9451
:1006C000A60688E891E062E271E00E94F80C88E8F2
:1006D00091E06AE040E00E94A60688E891E064E2CA
:1006E00071E00E94F80C88E891E06DE040E00E9423
:1006F000A60688E891E0B601A50121E030E00E945D
:10070000DF0D88E891E067E041E00E94A606609175
:100710009F017091A00188E891E04AE050E00E94BA
:10072000E50C88E891E064E041E00E94A60688E8D4
:1007300091E068E271E00E94F80C88E891E060E0E6
:1007400041E00E94A60688E891E06AE271E00E941A
:10075000F80C88E891E062E041E00E94A606609112
:10076000A1017091A20188E891E04AE050E00E9466
:10077000E50C88E891E06CE041E00E94A60688E87C
:1007800091E06DE271E00E94F80C88E891E065E08C
:1007900041E00E94A60688E891E06FE271E00E94C5
:1007A000F80C88E891E06DE041E00E94A60688E838
:1007B00091E0B401A30121E030E00E94DF0D88E860
:1007C00091E069E041E00E94A60688E891E068E2D5
:1007D00071E00E94F80C88E891E06AE041E00E9434
:1007E000A60688E891E065E00E940E0C64E170E0E6
:1007F00080E090E00E942F0A8DE00E94820B90938F
:100800009E0180939D010E9425017B018C016091D6
:100810009F017091A001882777FD8095982F0E94F5
:100820002F0F9B01AC01C801B7010E94DF0F181602
:1008300054F486E060E00E942E0B6AE070E080E0F5
:1008400090E00E942F0A0E9425017B018C0160919B
:10085000A1017091A201882777FD8095982F0E94B1
:100860002F0F9B01AC01C801B7010E94900E181612
:1008700054F086E061E00E942E0B6AE070E080E0B8
:1008800090E00E942F0A0E9425017B018C0160915B
:10089000A1017091A201882777FD8095982F0E9471
:1008A0002F0F2DEC3CEC4CEC5DE30E942B0E9B01DA
:1008B000AC01C801B7010E94900E88238CF48DE032
:1008C00060E00E942E0B65E070E080E090E00E9406
:1008D0002F0A8DE00E94820B90939E0180939D01D0
:1008E0000E9425017B018C016091A1017091A20100
:1008F000882777FD8095982F0E942F0F2DEC3CECD8
:100900004CE45EE30E942C0E9B01AC01C801B701D0
:100910000E94DF0F88238CF08DE061E00E942E0B97
:100920006AE070E080E090E00E942F0A8DE00E9473
:10093000820B90939E0180939D0180919D019091E7
:100940009E01892B09F044C088E891E067E040E00F
:100950000E94A60688E891E061E00E940E0C88E8FB
:1009600091E068E040E00E94A60688E891E062E03D
:100970000E940E0C6CE271E080E090E00E942F0A71
:1009800088E891E067E040E00E94A60688E891E0F0
:1009900062E00E940E0C88E891E068E040E00E946E
:1009A000A60688E891E061E00E940E0C88E891E0DC
:1009B00069E040E00E94A60688E891E068E271E004
:1009C0000E94F80C68EC70E080E090E00E942F0A32
:1009D00080919D0190919E01019761F488E891E0DA
:1009E00067E040E00E94A60688E891E062E371E0DB
:1009F0000E94F80CC401B3012DEC3CEC4CE45DE327
:100A00000E942C0E9B01AC01C601B5010E94DF0FB4
:100A10001816B4F48AE060E00E942E0B6AE070E0E1
:100A200080E090E00E942F0A88E891E06BE041E0CE
:100A30000E94A60688E891E066E00E940E0C1EC0A7
:100A4000C601B501A40193010E94900E1816E4F0AE
:100A50008AE061E00E942E0B6AE070E080E090E0A6
:100A60000E942F0A88E891E06BE041E00E94A60610
:100A700088E891E068E271E00E94F80C65E070E0BF
:100A800080E090E00E942F0ADF91CF911F910F919B
:100A9000FF90EF90DF90CF90BF90AF909F908F909E
:100AA0007F906F905F904F903F902F9008950F939D
:100AB0001F9308E811E0C80160E142E020E00E94D5
:100AC000DD06C80161E046E451E00E947406C801F9
:100AD00062E04EE451E00E947406C80163E046E51E
:100AE00051E00E947406C80164E04EE551E00E94A6
:100AF0007406C80165E046E651E00E947406C8012C
:100B000066E04EE651E00E94740686E061E00E94D5
:100B1000EF0A8AE061E00E94EF0A8DE061E00E9446
:100B2000EF0A80E160E00E94EF0A8FE060E00E943F
:100B3000EF0A82E160E00E94EF0A87E060E00E9435
:100B4000EF0A88E061E00E94EF0A86E061E00E941F
:100B50002E0B8AE061E00E942E0B8DE061E00E9486
:100B60002E0B1F910F9108950F931F938C01FC0181
:100B7000868160E00E942E0B81E090E00E94880A4E
:100B8000F801868161E00E942E0B81E090E00E94D6
:100B9000880AF801868160E00E942E0B84E690E0CE
:100BA0000E94880A1F910F910895CF92DF92EF92D1
:100BB000FF920F931F93CF93DF93D82EC92E282F28
:100BC000392FC9018C01C0E0D0E0E62EFF24F801E6
:100BD000878161E00E94EF0AB7010C2E02C0759573
:100BE00067950A94E2F76170F80187810E942E0BE5
:100BF00021960F5F1F4FC830D10549F78D2D9C2DD1
:100C00000E94B405DF91CF911F910F91FF90EF905B
:100C1000DF90CF900895CF92DF92EF92FF920F93E3
:100C20001F93CF93DF93D82EC92E282F392FC901B8
:100C30008C01C0E0D0E0E62EFF24F801878161E05E
:100C40000E94EF0AB7010C2E02C0759567950A94B1
:100C5000E2F76170F80187810E942E0B21960F5FE9
:100C60001F4FC430D10549F78D2D9C2D0E94B4052E
:100C7000DF91CF911F910F91FF90EF90DF90CF9078
:100C800008951F93CF93DF93EC01162F8C81642F6F
:100C90000E942E0B8D818F3F19F060E00E942E0B79
:100CA0008F8584FF05C0CE01612F0E94D5050EC03F
:100CB000612F70E084E0759567958A95E1F7CE0124
:100CC0000E940B06CE01612F0E940B06DF91CF918F
:100CD0001F91089541E00E94410681E090E008954F
:100CE00040E00E9441060895EF92FF920F931F93F8
:100CF000CF93DF938C017A016770660F660F660FE2
:100D000060640E947006C0E0D0E0D801ED91FC91D3
:100D1000D701AC0FBD1F0190F081E02DC8016C918F
:100D200009952196C830D10581F7DF91CF911F91A8
:100D30000F91FF90EF900895FC016089862F8460E9
:100D4000808B6C60CF010E9470060895DF93CF9373
:100D5000CDB7DEB728970FB6F894DEBF0FBECDBF74
:100D60009C01FE013196AFE7B1E088E00D90019261
:100D70008150E1F7F9018389481710F0482F41505D
:100D8000E42FF0E0EE0FFF1FEC0FFD1F8181680FD5
:100D90006068C9010E94700628960FB6F894DEBFFD
:100DA0000FBECDBFCF91DF91089561E00E94700624
:100DB00080ED97E00E94880A0895CF93DF93EC01BD
:100DC000423018F08F8588608F874B8B1C8A2223D6
:100DD00029F0413019F48F8584608F8780E593EC8A
:100DE0000E94880A8C8160E00E942E0B8E8160E058
:100DF0000E942E0B8D818F3F19F060E00E942E0B18
:100E00006F8564FD1DC0CE0163E00E940B0684E97E
:100E100091E10E94880ACE0163E00E940B0684E9FA
:100E200091E10E94880ACE0163E00E940B0686E9E8
:100E300090E00E94880ACE0162E00E940B0616C074
:100E40006062CE010E94700684E991E10E94880AE6
:100E50006F856062CE010E94700686E990E00E9474
:100E6000880A6F856062CE010E9470066F8560629D
:100E7000CE010E94700684E0888BCE010E949C0601
:100E8000CE010E94D50682E0898BCE0166E00E94E9
:100E90007006DF91CF9108956F927F928F92AF92FB
:100EA000CF92EF920F931F93DF93CF93CDB7DEB71F
:100EB0003C01162F842FF301448325830683E782A8
:100EC000C086A18682869D8593879E8594879F850F
:100ED00095879889968761E00E94EF0AF3018581E2
:100EE0008F3F19F061E00E94EF0AF301868161E013
:100EF0000E94EF0A112319F0F301178603C080E165
:100F0000F3018787C30160E141E020E00E94DD0634
:100F1000CF91DF911F910F91EF90CF90AF908F9075
:100F20007F906F9008958F92AF92CF92EF920F9330
:100F30001F93CF93DF93DC01362F542F722F102F86
:100F4000AE2C8C2C13961C921E9212978BE791E07C
:100F500011969C938E9300D000D0EDB7FEB73196DA
:100F6000CDB7DEB71982118212821382CD0161E002
:100F7000432F2FEF052FE72EC12E0E944C070F9015
:100F80000F900F900F90DF91CF911F910F91EF90E5
:100F9000CF90AF908F900895FC011386158614862C
:100FA00087E090E012863197009711F00197FACF11
:100FB0000895DC0180E00BC0E82FF0E08D9190E017
:100FC000E827F927E859FF4FE49161508E2F6623F7
:100FD00099F70895DF92EF92FF920F931F93FC0110
:100FE000E08001811281F894F80181818E2981834A
:100FF0008281DE2CD0948D21828383E090E00E9458
:10100000880AF80181818D2181838AE090E00E9425
:10101000880AF8010081789485E390E00E94880AAC
:1010200080E010E0FF240E211F21012B09F081E058
:101030001F910F91FF90EF90DF900895EF92FF9234
:101040000F931F93CF93DF937C0101E010E0C0E08A
:10105000D0E0C7010E94EA078111102B000F2196F2
:10106000C830D105B1F7812FDF91CF911F910F913A
:10107000FF90EF9008951F93CF93DF93FC011081B1
:10108000C181D281912F909560FF12C0F8948A811E
:1010900089238A838981812B89838AE090E00E9459
:1010A000880A8A81812B8A83789487E390E011C033
:1010B000F8948A8189238A838981812B898381E4B9
:1010C00090E00E94880A8A81812B8A83789485E047
:1010D00090E00E94880ADF91CF911F910895CF92EE
:1010E000DF92EF92FF920F931F93CF93DF938C01C8
:1010F000E42EFF24F394C0E0D0E0C62EDD2460E0AF
:101100008F2D90E08C219D21892B09F061E0C80191
:101110000E943B08FF0C2196C830D10581F7EE20D4
:10112000A9F4F894D8011196ED91FC911297918150
:101130008C918095982391831196ED91FC91129753
:1011400092818C918095982392837894DF91CF91AE
:101150001F910F91FF90EF90DF90CF900895EF9245
:10116000FF920F931F93CF93DF938C017B0165E573
:1011700040E00E946F08C0E0D0E0F701EC0FFD1FD7
:10118000C801608140E00E946F082196C830D105F7
:10119000A1F7DF91CF911F910F91FF90EF900895EC
:1011A000DF92EF92FF920F931F93CF93DF93FC0197
:1011B0000081C181D281F8948981D02ED0948D2173
:1011C000898378941DE7E02EFF24115059F182E0C5
:1011D00090E00E94880A888190E08E219F21892BCF
:1011E000A1F3F8948A818D218A838981802B898358
:1011F000789480EE91E00E94880AF89489818D218C
:10120000898386E490E00E94880A888110E090E05B
:10121000E822F922EF2809F411E078948AE991E0B4
:101220000E94880A812FDF91CF911F910F91FF902B
:10123000EF90DF900895AF92BF92DF92EF92FF920E
:101240000F931F93CF93DF93EC015B018D85882370
:1012500009F061C0CE010E94D008882329F41B86C2
:101260001D861C8690E06BC0CE0160EF40E00E94BE
:101270006F0801E0DD24EE24FF24F394CE010E94E8
:10128000EA07182FCE010E94EA07113019F48130C5
:10129000E1F439C0181709F58B85081770F460E080
:1012A000FE01EE0DF11D838190E02F2D30E08223B1
:1012B0009323181619064CF003C060E0081729F0B4
:1012C000093008F04CC00C874AC0FE01EE0DF11D3C
:1012D00083818F29838361E009C0612FFE01EE0DB8
:1012E000F11D9F2D9095838189238383CE010E94D8
:1012F0003B080F5FFF0C19F4E394FF24F39487E09D
:101300008E1508F0BBCF013430F0DB86DD2011F5FF
:1013100081E08D871FC01B861D861C8690E0DE0144
:1013200020E030E0F501E20FF31F13968C91139744
:1013300080832F5F3F4F11962830310599F7892F11
:10134000DF91CF911F910F91FF90EF90DF90BF90B1
:10135000AF9008958B818823F1F291E0E0CFD02EF9
:10136000BDCFFF920F931F938C01F62E862F60E066
:101370000E94EF0A8F2D90E0FC01E656FE4FE491AB
:10138000D801EC938A579E4FFC016491E62FF0E060
:10139000EE0FFF1FE458FE4F8591949112969C9397
:1013A0008E9311971B961C921B971D961C921D974E
:1013B0001C961C92F80187E090E012863197009706
:1013C00011F00197FACF1F910F91FF9008951F928E
:1013D0000F920FB60F9211242F933F938F939F93E9
:1013E000AF93BF938091CF019091D001A091D10193
:1013F000B091D2013091D3010196A11DB11D232FCF
:101400002D5F2D3720F02D570196A11DB11D209382
:10141000D3018093CF019093D001A093D101B093D9
:10142000D2018091CB019091CC01A091CD01B091DE
:10143000CE010196A11DB11D8093CB019093CC01EB
:10144000A093CD01B093CE01BF91AF919F918F91A9
:101450003F912F910F900FBE0F901F9018959B01F9
:10146000AC017FB7F8948091CB019091CC01A09111
:10147000CD01B091CE0166B5A89B05C06F3F19F0B4
:101480000196A11DB11D7FBFBA2FA92F982F8827C4
:10149000860F911DA11DB11D62E0880F991FAA1F23
:1014A000BB1F6A95D1F7BC012DC0FFB7F89480919E
:1014B000CB019091CC01A091CD01B091CE01E6B5C8
:1014C000A89B05C0EF3F19F00196A11DB11DFFBFFC
:1014D000BA2FA92F982F88278E0F911DA11DB11DFE
:1014E000E2E0880F991FAA1FBB1FEA95D1F7861B60
:1014F000970B885E9340C8F22150304040405040E6
:1015000068517C4F211531054105510571F608954B
:10151000019739F0880F991F880F991F029701973B
:10152000F1F70895789484B5826084BD84B58160B4
:1015300084BD85B5826085BD85B5816085BDEEE6DB
:10154000F0E0808181608083E1E8F0E010828081BA
:1015500082608083808181608083E0E8F0E0808128
:1015600081608083E1EBF0E0808184608083E0EB48
:10157000F0E0808181608083EAE7F0E08081846030
:10158000808380818260808380818160808380818C
:10159000806880831092C1000895982F8E3008F0E3
:1015A0009E509770809176018295880F880F807C7D
:1015B000892B80937C0080917A00806480937A00EC
:1015C00080917A0086FDFCCF2091780040917900CF
:1015D000942F80E030E0282B392BC9010895CF9358
:1015E000DF93482F50E0CA0186569E4FFC0134918C
:1015F0004A575E4FFA018491882369F190E0880F81
:10160000991FFC01E859FE4FA591B491FC01EE58D9
:10161000FE4FC591D491662351F42FB7F8948C9165
:10162000932F909589238C93888189230BC06230F6
:1016300061F42FB7F8948C91932F909589238C9314
:101640008881832B88832FBF06C09FB7F8948C9125
:10165000832B8C939FBFDF91CF910895482F50E04B
:10166000CA0182559E4FFC012491CA0186569E4FA5
:10167000FC0194914A575E4FFA013491332309F4E7
:1016800040C0222351F1233071F0243028F421305E
:10169000A1F0223011F514C02630B1F02730C1F08E
:1016A0002430D9F404C0809180008F7703C08091EA
:1016B00080008F7D8093800010C084B58F7702C03A
:1016C00084B58F7D84BD09C08091B0008F7703C041
:1016D0008091B0008F7D8093B000E32FF0E0EE0F9B
:1016E000FF1FEE58FE4FA591B4912FB7F8946623D3
:1016F00021F48C919095892302C08C91892B8C9335
:101700002FBF0895682F70E0CB0182559E4FFC01DA
:101710002491CB0186569E4FFC0144916A577E4F1F
:10172000FB019491992319F420E030E03CC022237E
:1017300051F1233071F0243028F42130A1F022300F
:1017400011F514C02630B1F02730C1F02430D9F49F
:1017500004C0809180008F7703C0809180008F7DCE
:101760008093800010C084B58F7702C084B58F7DD0
:1017700084BD09C08091B0008F7703C08091B00014
:101780008F7D8093B000892F90E0880F991F845837
:101790009E4FFC01A591B4918C9120E030E0842310
:1017A00011F021E030E0C9010895CF93DF930E944A
:1017B000920A0E945705C0E0D0E00E94B101209734
:1017C000E1F30E940000F9CFCF92DF92EF92FF92F7
:1017D0000F931F93CF93DF937C016B018A01C0E0CD
:1017E000D0E00FC0D6016D916D01D701ED91FC9154
:1017F0000190F081E02DC7010995C80FD91F015054
:1018000010400115110571F7CE01DF91CF911F91A5
:101810000F91FF90EF90DF90CF900895DC01ED9154
:10182000FC910190F081E02D09950895CF93DF930D
:10183000EC016115710519F420E030E00FC0DB0107
:101840000D900020E9F71197A61BB70BE881F981ED
:101850000280F381E02DAD0109959C01C901DF9162
:10186000CF9108954F925F927F928F929F92AF9205
:10187000BF92CF92DF92EF92FF920F931F93DF936D
:10188000CF93CDB7DEB7A1970FB6F894DEBF0FBEEA
:10189000CDBF2C01742ECB01223008F42AE019A20E
:1018A00031E2C32ED12CCC0EDD1E822E9924AA2427
:1018B000BB24672D752FA50194010E946910790141
:1018C0008A01C801B701A50194010E944A10472D61
:1018D000461B0894C108D1084A3014F4405D01C089
:1018E000495CF6014083E114F1040105110521F082
:1018F0007E2C5F2DC801DDCFC201B6010E94160CFF
:10190000A1960FB6F894DEBF0FBECDBFCF91DF9189
:101910001F910F91FF90EF90DF90CF90BF90AF900D
:101920009F908F907F905F904F900895DC012115DC
:10193000310541F4ED91FC910190F081E02D642F8F
:10194000099508950E94320C0895CF92DF92EF928C
:10195000FF920F931F93CF93DF93EC016A017B01FA
:101960002115310541F4E881F9810190F081E02DE4
:10197000642F09951FC02A303105D1F477FF17C0B5
:10198000E881F9810190F081E02D6DE209958C01EB
:1019900044275527BA014C195D096E097F09CE010C
:1019A0002AE00E94320C9801280F391F04C02AE057
:1019B0000E94320C9C01C901DF91CF911F910F91C0
:1019C000FF90EF90DF90CF900895EF92FF920F93EA
:1019D0001F937B019A010027F7FC0095102FB80197
:1019E000A7010E94A50C1F910F91FF90EF90089501
:1019F0000E94160C08957F928F929F92AF92BF9291
:101A0000CF92DF92EF92FF920F931F93CF93DF93CA
:101A10004C017A018B01722ECB01BA01A80197010A
:101A20000E944610882321F0C40166E371E021C0C2
:101A3000C0E0D0E057016801E894D7F8C601B501CD
:101A40002FEF3FEF4FE75FE70E944610882351F4E6
:101A5000C601B5012FEF3FEF4FE75FE70E94900E01
:101A6000181614F0C1E0D0E0219739F0C4016AE300
:101A700071E00E94160CEC0193C0C801B7012FEF72
:101A80003FEF4FE75FE40E94DF0F181654F0C801E4
:101A9000B7012FEF3FEF4FE75FEC0E94900E8823D6
:101AA00024F4C4016EE371E0E4CFC801B70120E083
:101AB00030E040E050E00E94900E87FD03C0C0E09F
:101AC000D0E00EC0D401ED91FC910190F081E02DA9
:101AD000C4016DE20995EC0117FB109517F91095FB
:101AE00020E030E040E05FE3DD240BC0CA01B90133
:101AF00020E030E040E251E40E94940E9B01AC01F2
:101B0000D394D71498F3C801B7010E942C0E5B013F
:101B10006C010E94010F7B018C01C401B801A70177
:101B20002AE030E00E94960CC80FD91F772039F0C8
:101B3000C40162E471E00E94160CC80FD91FC801ED
:101B4000B7010E942D0F9B01AC01C601B5010E9497
:101B50002B0E24C020E030E040E251E40E94E30F6D
:101B60007B018C010E94FC0E5B016C01CC24B7FC54
:101B7000C094DC2CC401B601A5012AE030E00E942B
:101B8000A50CC80FD91FC601B5010E942F0F9B01DC
:101B9000AC01C801B7010E942B0E7A947720D1F6D0
:101BA000CE01DF91CF911F910F91FF90EF90DF90C9
:101BB000CF90BF90AF909F908F907F9008950E949C
:101BC000FB0C08952F923F924F925F926F927F92FB
:101BD0008F929F92AF92BF92CF92DF92EF92FF923D
:101BE0000F931F93DF93CF93CDB7DEB73B014C012B
:101BF00019012A016D897E898F89988D6A197B095F
:101C00008C099D09621A730A840A950AA40193013A
:101C10000E944A10E218F30804091509A801970167
:101C20000E948B102A0D3B1D4C1D5D1DB901CA0180
:101C3000CF91DF911F910F91FF90EF90DF90CF90A8
:101C4000BF90AF909F908F907F906F905F904F90DC
:101C50003F902F9008955058BB27AA270ED075C1EA
:101C600066D130F06BD120F031F49F3F11F41EF4B7
:101C70005BC10EF4E095E7FB51C1E92F77D180F30A
:101C8000BA17620773078407950718F071F49EF579
:101C90008FC10EF4E0950B2EBA2FA02D0B01B901C8
:101CA00090010C01CA01A0011124FF27591B99F0D2
:101CB000593F50F4503E68F11A16F040A22F232FDE
:101CC000342F4427585FF3CF469537952795A7952E
:101CD000F0405395C9F77EF41F16BA0B620B730BD5
:101CE000840BBAF09150A1F0FF0FBB1F661F771F46
:101CF000881FC2F70EC0BA0F621F731F841F48F4FB
:101D0000879577956795B795F7959E3F08F0B3CF80
:101D10009395880F08F09927EE0F9795879508956A
:101D2000D9D008F481E008950CD00FC107D140F05C
:101D3000FED030F021F45F3F19F0F0C0511139C1ED
:101D4000F3C014D198F39923C9F35523B1F3951B2C
:101D5000550BBB27AA2762177307840738F09F5FCC
:101D60005F4F220F331F441FAA1FA9F333D00E2E3B
:101D70003AF0E0E830D091505040E695001CCAF7A8
:101D800029D0FE2F27D0660F771F881FBB1F26176D
:101D900037074807AB07B0E809F0BB0B802DBF0140
:101DA000FF2793585F4F2AF09E3F510568F0B6C059
:101DB00000C15F3FECF3983EDCF38695779567951D
:101DC000B795F7959F5FC9F7880F911D96958795F1
:101DD00097F90895E1E0660F771F881FBB1F621710
:101DE00073078407BA0720F0621B730B840BBA0BCE
:101DF000EE1F88F7E095089504D06894B111D9C01A
:101E00000895BCD088F09F5790F0B92F9927B7510B
:101E1000A0F0D1F0660F771F881F991F1AF0BA95AE
:101E2000C9F712C0B13081F0C3D0B1E00895C0C08D
:101E3000672F782F8827B85F39F0B93FCCF38695A4
:101E400077956795B395D9F73EF490958095709501
:101E500061957F4F8F4F9F4F0895E89409C097FB7E
:101E60003EF490958095709561957F4F8F4F9F4F71
:101E70009923A9F0F92F96E9BB279395F6958795B5
:101E800077956795B795F111F8CFFAF4BB0F11F478
:101E900060FF1BC06F5F7F4F8F4F9F4F16C088231F
:101EA00011F096E911C0772321F09EE8872F762F55
:101EB00005C0662371F096E8862F70E060E02AF096
:101EC0009A95660F771F881FDAF7880F9695879582
:101ED00097F90895990F0008550FAA0BE0E8FEEF57
:101EE00016161706E807F907C0F012161306E407DE
:101EF000F50798F0621B730B840B950B39F40A26D7
:101F000061F0232B242B252B21F408950A2609F4B4
:101F1000A140A6958FEF811D811D089597F99F67B8
:101F200080E870E060E008959FEF80EC0895002461
:101F30000A941616170618060906089500240A942E
:101F400012161306140605060895092E0394000CB4
:101F500011F4882352F0BB0F40F4BF2B11F460FF43
:101F600004C06F5F7F4F8F4F9F4F089557FD90586C
:101F7000440F551F59F05F3F71F04795880F97FB4D
:101F8000991F61F09F3F79F0879508951216130607
:101F90001406551FF2CF4695F1DF08C01616170636
:101FA0001806991FF1CF869571056105089408956B
:101FB000E894BB2766277727CB0197F908958ADF36
:101FC00008F48FEF08950BD0C0CFB1DF28F0B6DF53
:101FD00018F0952309F0A2CFA7CF1124EACFC6DFCE
:101FE000A0F3959FD1F3950F50E0551F629FF0012C
:101FF000729FBB27F00DB11D639FAA27F00DB11D85
:10200000AA1F649F6627B00DA11D661F829F22270D
:10201000B00DA11D621F739FB00DA11D621F839F94
:10202000A00D611D221F749F3327A00D611D231F6A
:10203000849F600D211D822F762F6A2F11249F57B8
:1020400050408AF0E1F088234AF0EE0FFF1FBB1FDB
:10205000661F771F881F91505040A9F79E3F51057A
:1020600070F05CCFA6CF5F3FECF3983EDCF3869533
:1020700077956795B795F795E7959F5FC1F7FE2B25
:10208000880F911D9695879597F9089523DF880B02
:10209000990B0895629FD001739FF001829FE00D1C
:1020A000F11D649FE00DF11D929FF00D839FF00DD7
:1020B000749FF00D659FF00D9927729FB00DE11D83
:1020C000F91F639FB00DE11DF91FBD01CF01112460
:1020D0000895A1E21A2EAA1BBB1BFD010DC0AA1F69
:1020E000BB1FEE1FFF1FA217B307E407F50720F081
:1020F000A21BB30BE40BF50B661F771F881F991FFC
:102100001A9469F760957095809590959B01AC0144
:10211000BD01CF01089597FB092E05260ED057FD6E
:1021200004D0D7DF0AD0001C38F450954095309584
:1021300021953F4F4F4F5F4F0895F6F7909580954B
:10214000709561957F4F8F4F9F4F0895EE0FFF1F42
:0C2150000590F491E02D0994F894FFCF65
:10215C005E5E5741544552204E49564541555E5E90
:10216C00005F5F5F5F5F5F4C4141475F5F5F5F5F39
:10217C005F00430070483A0020004C7E007E00480F
:10218C007E00202020006E616E00696E66006F7606
:10219C0066002E00090004040E0A1B11110E00002B
:1021AC0004040E0A110E040A0E0E1F1F1F0E1C141F
:1021BC001C00000000000C02070D15171707010486
:1021CC0011040A01020101000000006A06E40B0080
:0821DC00004000140054000053
:00000001FF
